{
    "contractName": "LoginContract",
    "abi": [
        {
            "inputs": [],
            "name": "Register",
            "outputs": [],
            "stateMutability": "payable",
            "type": "function",
            "payable": true
        },
        {
            "inputs": [],
            "name": "getuserToken",
            "outputs": [
                {
                    "internalType": "uint16",
                    "name": "",
                    "type": "uint16"
                }
            ],
            "stateMutability": "view",
            "type": "function",
            "constant": true
        }
    ],
    "bytecode": "0x608060405234801561001057600080fd5b506101f8806100206000396000f3fe6080604052600436106100295760003560e01c806319e5bf3a1461002e578063913b4ada14610038575b600080fd5b610036610063565b005b34801561004457600080fd5b5061004d6100dc565b60405161005a919061013f565b60405180910390f35b6000803373ffffffffffffffffffffffffffffffffffffffff1673ffffffffffffffffffffffffffffffffffffffff168152602001908152602001600020600081819054906101000a900461ffff16809291906100bf90610168565b91906101000a81548161ffff021916908361ffff16021790555050565b60008060003373ffffffffffffffffffffffffffffffffffffffff1673ffffffffffffffffffffffffffffffffffffffff16815260200190815260200160002060009054906101000a900461ffff16905090565b6101398161015a565b82525050565b60006020820190506101546000830184610130565b92915050565b600061ffff82169050919050565b60006101738261015a565b915061ffff82141561018857610187610193565b5b600182019050919050565b7f4e487b7100000000000000000000000000000000000000000000000000000000600052601160045260246000fdfea26469706673582212205356a7afafa096639edfb9e190fcc4ea52d10e7b066b10c68b63372d6a10a49264736f6c63430008000033",
    "immutableReferences": {},
    "source": "// SPDX-License-Identifier: MIT\npragma solidity ^0.8.0;\n\ncontract LoginContract {\n\n    mapping (address=>uint16) userToken;\n    // 회원가입이 완료되면 가입한 회원 지갑으로 DWT를 전송합니다.\n    function Register() payable  external {\n        userToken[msg.sender]++;\n    }\n\n    // 사용자가 보유한 Token 갯수를 반환합니다.\n    function getuserToken() view external returns(uint16) {\n        return userToken[msg.sender];\n    }\n}",
    "sourcePath": "/Users/hana/SpringBoot_Project_CultureCenter/Dapp_ToyProject_CultureCenter/smartContract/contracts/LoginContract.sol",
    "compiler": {
        "name": "solc",
        "version": "0.8.0+commit.c7dfd78e.Emscripten.clang"
    },
    "schemaVersion": "3.4.8",
    "updatedAt": "2022-08-17T23:52:49.935Z",
    "networkType": "ethereum",
    "devdoc": {
        "kind": "dev",
        "methods": {},
        "version": 1
    },
    "userdoc": {
        "kind": "user",
        "methods": {},
        "version": 1
    }
}