{
    "contractName": "SampleToken",
    "abi": [
        {
            "inputs": [],
            "stateMutability": "nonpayable",
            "type": "constructor"
        },
        {
            "anonymous": false,
            "inputs": [
                {
                    "indexed": true,
                    "internalType": "address",
                    "name": "owner",
                    "type": "address"
                },
                {
                    "indexed": true,
                    "internalType": "address",
                    "name": "spender",
                    "type": "address"
                },
                {
                    "indexed": false,
                    "internalType": "uint256",
                    "name": "value",
                    "type": "uint256"
                }
            ],
            "name": "Approval",
            "type": "event"
        },
        {
            "anonymous": false,
            "inputs": [
                {
                    "indexed": true,
                    "internalType": "bytes32",
                    "name": "role",
                    "type": "bytes32"
                },
                {
                    "indexed": true,
                    "internalType": "bytes32",
                    "name": "previousAdminRole",
                    "type": "bytes32"
                },
                {
                    "indexed": true,
                    "internalType": "bytes32",
                    "name": "newAdminRole",
                    "type": "bytes32"
                }
            ],
            "name": "RoleAdminChanged",
            "type": "event"
        },
        {
            "anonymous": false,
            "inputs": [
                {
                    "indexed": true,
                    "internalType": "bytes32",
                    "name": "role",
                    "type": "bytes32"
                },
                {
                    "indexed": true,
                    "internalType": "address",
                    "name": "account",
                    "type": "address"
                },
                {
                    "indexed": true,
                    "internalType": "address",
                    "name": "sender",
                    "type": "address"
                }
            ],
            "name": "RoleGranted",
            "type": "event"
        },
        {
            "anonymous": false,
            "inputs": [
                {
                    "indexed": true,
                    "internalType": "bytes32",
                    "name": "role",
                    "type": "bytes32"
                },
                {
                    "indexed": true,
                    "internalType": "address",
                    "name": "account",
                    "type": "address"
                },
                {
                    "indexed": true,
                    "internalType": "address",
                    "name": "sender",
                    "type": "address"
                }
            ],
            "name": "RoleRevoked",
            "type": "event"
        },
        {
            "anonymous": false,
            "inputs": [
                {
                    "indexed": true,
                    "internalType": "address",
                    "name": "from",
                    "type": "address"
                },
                {
                    "indexed": true,
                    "internalType": "address",
                    "name": "to",
                    "type": "address"
                },
                {
                    "indexed": false,
                    "internalType": "uint256",
                    "name": "value",
                    "type": "uint256"
                }
            ],
            "name": "Transfer",
            "type": "event"
        },
        {
            "inputs": [],
            "name": "DEFAULT_ADMIN_ROLE",
            "outputs": [
                {
                    "internalType": "bytes32",
                    "name": "",
                    "type": "bytes32"
                }
            ],
            "stateMutability": "view",
            "type": "function",
            "constant": true
        },
        {
            "inputs": [
                {
                    "internalType": "address",
                    "name": "owner",
                    "type": "address"
                },
                {
                    "internalType": "address",
                    "name": "spender",
                    "type": "address"
                }
            ],
            "name": "allowance",
            "outputs": [
                {
                    "internalType": "uint256",
                    "name": "",
                    "type": "uint256"
                }
            ],
            "stateMutability": "view",
            "type": "function",
            "constant": true
        },
        {
            "inputs": [
                {
                    "internalType": "address",
                    "name": "spender",
                    "type": "address"
                },
                {
                    "internalType": "uint256",
                    "name": "amount",
                    "type": "uint256"
                }
            ],
            "name": "approve",
            "outputs": [
                {
                    "internalType": "bool",
                    "name": "",
                    "type": "bool"
                }
            ],
            "stateMutability": "nonpayable",
            "type": "function"
        },
        {
            "inputs": [
                {
                    "internalType": "address",
                    "name": "account",
                    "type": "address"
                }
            ],
            "name": "balanceOf",
            "outputs": [
                {
                    "internalType": "uint256",
                    "name": "",
                    "type": "uint256"
                }
            ],
            "stateMutability": "view",
            "type": "function",
            "constant": true
        },
        {
            "inputs": [],
            "name": "decimals",
            "outputs": [
                {
                    "internalType": "uint8",
                    "name": "",
                    "type": "uint8"
                }
            ],
            "stateMutability": "view",
            "type": "function",
            "constant": true
        },
        {
            "inputs": [
                {
                    "internalType": "address",
                    "name": "spender",
                    "type": "address"
                },
                {
                    "internalType": "uint256",
                    "name": "subtractedValue",
                    "type": "uint256"
                }
            ],
            "name": "decreaseAllowance",
            "outputs": [
                {
                    "internalType": "bool",
                    "name": "",
                    "type": "bool"
                }
            ],
            "stateMutability": "nonpayable",
            "type": "function"
        },
        {
            "inputs": [
                {
                    "internalType": "bytes32",
                    "name": "role",
                    "type": "bytes32"
                }
            ],
            "name": "getRoleAdmin",
            "outputs": [
                {
                    "internalType": "bytes32",
                    "name": "",
                    "type": "bytes32"
                }
            ],
            "stateMutability": "view",
            "type": "function",
            "constant": true
        },
        {
            "inputs": [
                {
                    "internalType": "bytes32",
                    "name": "role",
                    "type": "bytes32"
                },
                {
                    "internalType": "address",
                    "name": "account",
                    "type": "address"
                }
            ],
            "name": "grantRole",
            "outputs": [],
            "stateMutability": "nonpayable",
            "type": "function"
        },
        {
            "inputs": [
                {
                    "internalType": "bytes32",
                    "name": "role",
                    "type": "bytes32"
                },
                {
                    "internalType": "address",
                    "name": "account",
                    "type": "address"
                }
            ],
            "name": "hasRole",
            "outputs": [
                {
                    "internalType": "bool",
                    "name": "",
                    "type": "bool"
                }
            ],
            "stateMutability": "view",
            "type": "function",
            "constant": true
        },
        {
            "inputs": [
                {
                    "internalType": "address",
                    "name": "spender",
                    "type": "address"
                },
                {
                    "internalType": "uint256",
                    "name": "addedValue",
                    "type": "uint256"
                }
            ],
            "name": "increaseAllowance",
            "outputs": [
                {
                    "internalType": "bool",
                    "name": "",
                    "type": "bool"
                }
            ],
            "stateMutability": "nonpayable",
            "type": "function"
        },
        {
            "inputs": [],
            "name": "name",
            "outputs": [
                {
                    "internalType": "string",
                    "name": "",
                    "type": "string"
                }
            ],
            "stateMutability": "view",
            "type": "function",
            "constant": true
        },
        {
            "inputs": [
                {
                    "internalType": "bytes32",
                    "name": "role",
                    "type": "bytes32"
                },
                {
                    "internalType": "address",
                    "name": "account",
                    "type": "address"
                }
            ],
            "name": "renounceRole",
            "outputs": [],
            "stateMutability": "nonpayable",
            "type": "function"
        },
        {
            "inputs": [
                {
                    "internalType": "bytes32",
                    "name": "role",
                    "type": "bytes32"
                },
                {
                    "internalType": "address",
                    "name": "account",
                    "type": "address"
                }
            ],
            "name": "revokeRole",
            "outputs": [],
            "stateMutability": "nonpayable",
            "type": "function"
        },
        {
            "inputs": [
                {
                    "internalType": "bytes4",
                    "name": "interfaceId",
                    "type": "bytes4"
                }
            ],
            "name": "supportsInterface",
            "outputs": [
                {
                    "internalType": "bool",
                    "name": "",
                    "type": "bool"
                }
            ],
            "stateMutability": "view",
            "type": "function",
            "constant": true
        },
        {
            "inputs": [],
            "name": "symbol",
            "outputs": [
                {
                    "internalType": "string",
                    "name": "",
                    "type": "string"
                }
            ],
            "stateMutability": "view",
            "type": "function",
            "constant": true
        },
        {
            "inputs": [],
            "name": "totalSupply",
            "outputs": [
                {
                    "internalType": "uint256",
                    "name": "",
                    "type": "uint256"
                }
            ],
            "stateMutability": "view",
            "type": "function",
            "constant": true
        },
        {
            "inputs": [
                {
                    "internalType": "address",
                    "name": "to",
                    "type": "address"
                },
                {
                    "internalType": "uint256",
                    "name": "amount",
                    "type": "uint256"
                }
            ],
            "name": "transfer",
            "outputs": [
                {
                    "internalType": "bool",
                    "name": "",
                    "type": "bool"
                }
            ],
            "stateMutability": "nonpayable",
            "type": "function"
        },
        {
            "inputs": [
                {
                    "internalType": "address",
                    "name": "from",
                    "type": "address"
                },
                {
                    "internalType": "address",
                    "name": "to",
                    "type": "address"
                },
                {
                    "internalType": "uint256",
                    "name": "amount",
                    "type": "uint256"
                }
            ],
            "name": "transferFrom",
            "outputs": [
                {
                    "internalType": "bool",
                    "name": "",
                    "type": "bool"
                }
            ],
            "stateMutability": "nonpayable",
            "type": "function"
        }
    ],
    "bytecode": "0x60806040523480156200001157600080fd5b506040518060400160405280600f81526020017f4469676974616c2057617272696f7200000000000000000000000000000000008152506040518060400160405280600381526020017f445754000000000000000000000000000000000000000000000000000000000081525081600390805190602001906200009692919062000285565b508060049080519060200190620000af92919062000285565b505050620000f333620000c7620000f960201b60201c565b60ff16600a620000d8919062000490565b612710620000e79190620005cd565b6200010260201b60201c565b620006d9565b60006012905090565b600073ffffffffffffffffffffffffffffffffffffffff168273ffffffffffffffffffffffffffffffffffffffff16141562000175576040517f08c379a00000000000000000000000000000000000000000000000000000000081526004016200016c9062000388565b60405180910390fd5b62000189600083836200027b60201b60201c565b80600260008282546200019d9190620003d8565b92505081905550806000808473ffffffffffffffffffffffffffffffffffffffff1673ffffffffffffffffffffffffffffffffffffffff1681526020019081526020016000206000828254620001f49190620003d8565b925050819055508173ffffffffffffffffffffffffffffffffffffffff16600073ffffffffffffffffffffffffffffffffffffffff167fddf252ad1be2c89b69c2b068fc378daa952ba7f163c4a11628f55a4df523b3ef836040516200025b9190620003aa565b60405180910390a362000277600083836200028060201b60201c565b5050565b505050565b505050565b828054620002939062000638565b90600052602060002090601f016020900481019282620002b7576000855562000303565b82601f10620002d257805160ff191683800117855562000303565b8280016001018555821562000303579182015b8281111562000302578251825591602001919060010190620002e5565b5b50905062000312919062000316565b5090565b5b808211156200033157600081600090555060010162000317565b5090565b600062000344601f83620003c7565b91507f45524332303a206d696e7420746f20746865207a65726f2061646472657373006000830152602082019050919050565b62000382816200062e565b82525050565b60006020820190508181036000830152620003a38162000335565b9050919050565b6000602082019050620003c1600083018462000377565b92915050565b600082825260208201905092915050565b6000620003e5826200062e565b9150620003f2836200062e565b9250827fffffffffffffffffffffffffffffffffffffffffffffffffffffffffffffffff038211156200042a57620004296200066e565b5b828201905092915050565b6000808291508390505b600185111562000487578086048111156200045f576200045e6200066e565b5b60018516156200046f5780820291505b80810290506200047f85620006cc565b94506200043f565b94509492505050565b60006200049d826200062e565b9150620004aa836200062e565b9250620004d97fffffffffffffffffffffffffffffffffffffffffffffffffffffffffffffffff8484620004e1565b905092915050565b600082620004f35760019050620005c6565b81620005035760009050620005c6565b81600181146200051c576002811462000527576200055d565b6001915050620005c6565b60ff8411156200053c576200053b6200066e565b5b8360020a9150848211156200055657620005556200066e565b5b50620005c6565b5060208310610133831016604e8410600b8410161715620005975782820a9050838111156200059157620005906200066e565b5b620005c6565b620005a6848484600162000435565b92509050818404811115620005c057620005bf6200066e565b5b81810290505b9392505050565b6000620005da826200062e565b9150620005e7836200062e565b9250817fffffffffffffffffffffffffffffffffffffffffffffffffffffffffffffffff04831182151516156200062357620006226200066e565b5b828202905092915050565b6000819050919050565b600060028204905060018216806200065157607f821691505b602082108114156200066857620006676200069d565b5b50919050565b7f4e487b7100000000000000000000000000000000000000000000000000000000600052601160045260246000fd5b7f4e487b7100000000000000000000000000000000000000000000000000000000600052602260045260246000fd5b60008160011c9050919050565b611ebd80620006e96000396000f3fe608060405234801561001057600080fd5b50600436106101165760003560e01c806339509351116100a2578063a217fddf11610071578063a217fddf1461031b578063a457c2d714610339578063a9059cbb14610369578063d547741f14610399578063dd62ed3e146103b557610116565b8063395093511461026d57806370a082311461029d57806391d14854146102cd57806395d89b41146102fd57610116565b806323b872dd116100e957806323b872dd146101b7578063248a9ca3146101e75780632f2ff15d14610217578063313ce5671461023357806336568abe1461025157610116565b806301ffc9a71461011b57806306fdde031461014b578063095ea7b31461016957806318160ddd14610199575b600080fd5b6101356004803603810190610130919061154a565b6103e5565b6040516101429190611a1d565b60405180910390f35b61015361045f565b6040516101609190611a53565b60405180910390f35b610183600480360381019061017e91906114a9565b6104f1565b6040516101909190611a1d565b60405180910390f35b6101a1610514565b6040516101ae9190611b95565b60405180910390f35b6101d160048036038101906101cc919061145a565b61051e565b6040516101de9190611a1d565b60405180910390f35b61020160048036038101906101fc91906114e5565b61054d565b60405161020e9190611a38565b60405180910390f35b610231600480360381019061022c919061150e565b61056d565b005b61023b61058e565b6040516102489190611bb0565b60405180910390f35b61026b6004803603810190610266919061150e565b610597565b005b610287600480360381019061028291906114a9565b61061a565b6040516102949190611a1d565b60405180910390f35b6102b760048036038101906102b291906113f5565b610651565b6040516102c49190611b95565b60405180910390f35b6102e760048036038101906102e2919061150e565b610699565b6040516102f49190611a1d565b60405180910390f35b610305610704565b6040516103129190611a53565b60405180910390f35b610323610796565b6040516103309190611a38565b60405180910390f35b610353600480360381019061034e91906114a9565b61079d565b6040516103609190611a1d565b60405180910390f35b610383600480360381019061037e91906114a9565b610814565b6040516103909190611a1d565b60405180910390f35b6103b360048036038101906103ae919061150e565b610837565b005b6103cf60048036038101906103ca919061141e565b610858565b6040516103dc9190611b95565b60405180910390f35b60007f7965db0b000000000000000000000000000000000000000000000000000000007bffffffffffffffffffffffffffffffffffffffffffffffffffffffff1916827bffffffffffffffffffffffffffffffffffffffffffffffffffffffff191614806104585750610457826108df565b5b9050919050565b60606003805461046e90611d8a565b80601f016020809104026020016040519081016040528092919081815260200182805461049a90611d8a565b80156104e75780601f106104bc576101008083540402835291602001916104e7565b820191906000526020600020905b8154815290600101906020018083116104ca57829003601f168201915b5050505050905090565b6000806104fc610949565b9050610509818585610951565b600191505092915050565b6000600254905090565b600080610529610949565b9050610536858285610b1c565b610541858585610ba8565b60019150509392505050565b600060056000838152602001908152602001600020600101549050919050565b6105768261054d565b61057f81610e29565b6105898383610e3d565b505050565b60006012905090565b61059f610949565b73ffffffffffffffffffffffffffffffffffffffff168173ffffffffffffffffffffffffffffffffffffffff161461060c576040517f08c379a000000000000000000000000000000000000000000000000000000000815260040161060390611b75565b60405180910390fd5b6106168282610f1e565b5050565b600080610625610949565b90506106468185856106378589610858565b6106419190611bf2565b610951565b600191505092915050565b60008060008373ffffffffffffffffffffffffffffffffffffffff1673ffffffffffffffffffffffffffffffffffffffff168152602001908152602001600020549050919050565b60006005600084815260200190815260200160002060000160008373ffffffffffffffffffffffffffffffffffffffff1673ffffffffffffffffffffffffffffffffffffffff16815260200190815260200160002060009054906101000a900460ff16905092915050565b60606004805461071390611d8a565b80601f016020809104026020016040519081016040528092919081815260200182805461073f90611d8a565b801561078c5780601f106107615761010080835404028352916020019161078c565b820191906000526020600020905b81548152906001019060200180831161076f57829003601f168201915b5050505050905090565b6000801b81565b6000806107a8610949565b905060006107b68286610858565b9050838110156107fb576040517f08c379a00000000000000000000000000000000000000000000000000000000081526004016107f290611b55565b60405180910390fd5b6108088286868403610951565b60019250505092915050565b60008061081f610949565b905061082c818585610ba8565b600191505092915050565b6108408261054d565b61084981610e29565b6108538383610f1e565b505050565b6000600160008473ffffffffffffffffffffffffffffffffffffffff1673ffffffffffffffffffffffffffffffffffffffff16815260200190815260200160002060008373ffffffffffffffffffffffffffffffffffffffff1673ffffffffffffffffffffffffffffffffffffffff16815260200190815260200160002054905092915050565b60007f01ffc9a7000000000000000000000000000000000000000000000000000000007bffffffffffffffffffffffffffffffffffffffffffffffffffffffff1916827bffffffffffffffffffffffffffffffffffffffffffffffffffffffff1916149050919050565b600033905090565b600073ffffffffffffffffffffffffffffffffffffffff168373ffffffffffffffffffffffffffffffffffffffff1614156109c1576040517f08c379a00000000000000000000000000000000000000000000000000000000081526004016109b890611b35565b60405180910390fd5b600073ffffffffffffffffffffffffffffffffffffffff168273ffffffffffffffffffffffffffffffffffffffff161415610a31576040517f08c379a0000000000000000000000000000000000000000000000000000000008152600401610a2890611ab5565b60405180910390fd5b80600160008573ffffffffffffffffffffffffffffffffffffffff1673ffffffffffffffffffffffffffffffffffffffff16815260200190815260200160002060008473ffffffffffffffffffffffffffffffffffffffff1673ffffffffffffffffffffffffffffffffffffffff168152602001908152602001600020819055508173ffffffffffffffffffffffffffffffffffffffff168373ffffffffffffffffffffffffffffffffffffffff167f8c5be1e5ebec7d5bd14f71427d1e84f3dd0314c0f7b2291e5b200ac8c7c3b92583604051610b0f9190611b95565b60405180910390a3505050565b6000610b288484610858565b90507fffffffffffffffffffffffffffffffffffffffffffffffffffffffffffffffff8114610ba25781811015610b94576040517f08c379a0000000000000000000000000000000000000000000000000000000008152600401610b8b90611ad5565b60405180910390fd5b610ba18484848403610951565b5b50505050565b600073ffffffffffffffffffffffffffffffffffffffff168373ffffffffffffffffffffffffffffffffffffffff161415610c18576040517f08c379a0000000000000000000000000000000000000000000000000000000008152600401610c0f90611b15565b60405180910390fd5b600073ffffffffffffffffffffffffffffffffffffffff168273ffffffffffffffffffffffffffffffffffffffff161415610c88576040517f08c379a0000000000000000000000000000000000000000000000000000000008152600401610c7f90611a95565b60405180910390fd5b610c93838383611000565b60008060008573ffffffffffffffffffffffffffffffffffffffff1673ffffffffffffffffffffffffffffffffffffffff16815260200190815260200160002054905081811015610d19576040517f08c379a0000000000000000000000000000000000000000000000000000000008152600401610d1090611af5565b60405180910390fd5b8181036000808673ffffffffffffffffffffffffffffffffffffffff1673ffffffffffffffffffffffffffffffffffffffff16815260200190815260200160002081905550816000808573ffffffffffffffffffffffffffffffffffffffff1673ffffffffffffffffffffffffffffffffffffffff1681526020019081526020016000206000828254610dac9190611bf2565b925050819055508273ffffffffffffffffffffffffffffffffffffffff168473ffffffffffffffffffffffffffffffffffffffff167fddf252ad1be2c89b69c2b068fc378daa952ba7f163c4a11628f55a4df523b3ef84604051610e109190611b95565b60405180910390a3610e23848484611005565b50505050565b610e3a81610e35610949565b61100a565b50565b610e478282610699565b610f1a5760016005600084815260200190815260200160002060000160008373ffffffffffffffffffffffffffffffffffffffff1673ffffffffffffffffffffffffffffffffffffffff16815260200190815260200160002060006101000a81548160ff021916908315150217905550610ebf610949565b73ffffffffffffffffffffffffffffffffffffffff168173ffffffffffffffffffffffffffffffffffffffff16837f2f8788117e7eff1d82e926ec794901d17c78024a50270940304540a733656f0d60405160405180910390a45b5050565b610f288282610699565b15610ffc5760006005600084815260200190815260200160002060000160008373ffffffffffffffffffffffffffffffffffffffff1673ffffffffffffffffffffffffffffffffffffffff16815260200190815260200160002060006101000a81548160ff021916908315150217905550610fa1610949565b73ffffffffffffffffffffffffffffffffffffffff168173ffffffffffffffffffffffffffffffffffffffff16837ff6391f5c32d9c69d2a47ea670b442974b53935d1edc7fd64eb21e047a839171b60405160405180910390a45b5050565b505050565b505050565b6110148282610699565b6110a3576110398173ffffffffffffffffffffffffffffffffffffffff1660146110a7565b6110478360001c60206110a7565b6040516020016110589291906119e3565b6040516020818303038152906040526040517f08c379a000000000000000000000000000000000000000000000000000000000815260040161109a9190611a53565b60405180910390fd5b5050565b6060600060028360026110ba9190611c48565b6110c49190611bf2565b67ffffffffffffffff811115611103577f4e487b7100000000000000000000000000000000000000000000000000000000600052604160045260246000fd5b6040519080825280601f01601f1916602001820160405280156111355781602001600182028036833780820191505090505b5090507f300000000000000000000000000000000000000000000000000000000000000081600081518110611193577f4e487b7100000000000000000000000000000000000000000000000000000000600052603260045260246000fd5b60200101907effffffffffffffffffffffffffffffffffffffffffffffffffffffffffffff1916908160001a9053507f78000000000000000000000000000000000000000000000000000000000000008160018151811061121d577f4e487b7100000000000000000000000000000000000000000000000000000000600052603260045260246000fd5b60200101907effffffffffffffffffffffffffffffffffffffffffffffffffffffffffffff1916908160001a9053506000600184600261125d9190611c48565b6112679190611bf2565b90505b6001811115611353577f3031323334353637383961626364656600000000000000000000000000000000600f8616601081106112cf577f4e487b7100000000000000000000000000000000000000000000000000000000600052603260045260246000fd5b1a60f81b82828151811061130c577f4e487b7100000000000000000000000000000000000000000000000000000000600052603260045260246000fd5b60200101907effffffffffffffffffffffffffffffffffffffffffffffffffffffffffffff1916908160001a905350600485901c94508061134c90611d60565b905061126a565b5060008414611397576040517f08c379a000000000000000000000000000000000000000000000000000000000815260040161138e90611a75565b60405180910390fd5b8091505092915050565b6000813590506113b081611e2b565b92915050565b6000813590506113c581611e42565b92915050565b6000813590506113da81611e59565b92915050565b6000813590506113ef81611e70565b92915050565b60006020828403121561140757600080fd5b6000611415848285016113a1565b91505092915050565b6000806040838503121561143157600080fd5b600061143f858286016113a1565b9250506020611450858286016113a1565b9150509250929050565b60008060006060848603121561146f57600080fd5b600061147d868287016113a1565b935050602061148e868287016113a1565b925050604061149f868287016113e0565b9150509250925092565b600080604083850312156114bc57600080fd5b60006114ca858286016113a1565b92505060206114db858286016113e0565b9150509250929050565b6000602082840312156114f757600080fd5b6000611505848285016113b6565b91505092915050565b6000806040838503121561152157600080fd5b600061152f858286016113b6565b9250506020611540858286016113a1565b9150509250929050565b60006020828403121561155c57600080fd5b600061156a848285016113cb565b91505092915050565b61157c81611cb4565b82525050565b61158b81611cc0565b82525050565b600061159c82611bcb565b6115a68185611bd6565b93506115b6818560208601611d2d565b6115bf81611e1a565b840191505092915050565b60006115d582611bcb565b6115df8185611be7565b93506115ef818560208601611d2d565b80840191505092915050565b6000611608602083611bd6565b91507f537472696e67733a20686578206c656e67746820696e73756666696369656e746000830152602082019050919050565b6000611648602383611bd6565b91507f45524332303a207472616e7366657220746f20746865207a65726f206164647260008301527f65737300000000000000000000000000000000000000000000000000000000006020830152604082019050919050565b60006116ae602283611bd6565b91507f45524332303a20617070726f766520746f20746865207a65726f20616464726560008301527f73730000000000000000000000000000000000000000000000000000000000006020830152604082019050919050565b6000611714601d83611bd6565b91507f45524332303a20696e73756666696369656e7420616c6c6f77616e63650000006000830152602082019050919050565b6000611754602683611bd6565b91507f45524332303a207472616e7366657220616d6f756e742065786365656473206260008301527f616c616e636500000000000000000000000000000000000000000000000000006020830152604082019050919050565b60006117ba602583611bd6565b91507f45524332303a207472616e736665722066726f6d20746865207a65726f20616460008301527f64726573730000000000000000000000000000000000000000000000000000006020830152604082019050919050565b6000611820602483611bd6565b91507f45524332303a20617070726f76652066726f6d20746865207a65726f2061646460008301527f72657373000000000000000000000000000000000000000000000000000000006020830152604082019050919050565b6000611886601783611be7565b91507f416363657373436f6e74726f6c3a206163636f756e74200000000000000000006000830152601782019050919050565b60006118c6602583611bd6565b91507f45524332303a2064656372656173656420616c6c6f77616e63652062656c6f7760008301527f207a65726f0000000000000000000000000000000000000000000000000000006020830152604082019050919050565b600061192c601183611be7565b91507f206973206d697373696e6720726f6c65200000000000000000000000000000006000830152601182019050919050565b600061196c602f83611bd6565b91507f416363657373436f6e74726f6c3a2063616e206f6e6c792072656e6f756e636560008301527f20726f6c657320666f722073656c6600000000000000000000000000000000006020830152604082019050919050565b6119ce81611d16565b82525050565b6119dd81611d20565b82525050565b60006119ee82611879565b91506119fa82856115ca565b9150611a058261191f565b9150611a1182846115ca565b91508190509392505050565b6000602082019050611a326000830184611573565b92915050565b6000602082019050611a4d6000830184611582565b92915050565b60006020820190508181036000830152611a6d8184611591565b905092915050565b60006020820190508181036000830152611a8e816115fb565b9050919050565b60006020820190508181036000830152611aae8161163b565b9050919050565b60006020820190508181036000830152611ace816116a1565b9050919050565b60006020820190508181036000830152611aee81611707565b9050919050565b60006020820190508181036000830152611b0e81611747565b9050919050565b60006020820190508181036000830152611b2e816117ad565b9050919050565b60006020820190508181036000830152611b4e81611813565b9050919050565b60006020820190508181036000830152611b6e816118b9565b9050919050565b60006020820190508181036000830152611b8e8161195f565b9050919050565b6000602082019050611baa60008301846119c5565b92915050565b6000602082019050611bc560008301846119d4565b92915050565b600081519050919050565b600082825260208201905092915050565b600081905092915050565b6000611bfd82611d16565b9150611c0883611d16565b9250827fffffffffffffffffffffffffffffffffffffffffffffffffffffffffffffffff03821115611c3d57611c3c611dbc565b5b828201905092915050565b6000611c5382611d16565b9150611c5e83611d16565b9250817fffffffffffffffffffffffffffffffffffffffffffffffffffffffffffffffff0483118215151615611c9757611c96611dbc565b5b828202905092915050565b6000611cad82611cf6565b9050919050565b60008115159050919050565b6000819050919050565b60007fffffffff0000000000000000000000000000000000000000000000000000000082169050919050565b600073ffffffffffffffffffffffffffffffffffffffff82169050919050565b6000819050919050565b600060ff82169050919050565b60005b83811015611d4b578082015181840152602081019050611d30565b83811115611d5a576000848401525b50505050565b6000611d6b82611d16565b91506000821415611d7f57611d7e611dbc565b5b600182039050919050565b60006002820490506001821680611da257607f821691505b60208210811415611db657611db5611deb565b5b50919050565b7f4e487b7100000000000000000000000000000000000000000000000000000000600052601160045260246000fd5b7f4e487b7100000000000000000000000000000000000000000000000000000000600052602260045260246000fd5b6000601f19601f8301169050919050565b611e3481611ca2565b8114611e3f57600080fd5b50565b611e4b81611cc0565b8114611e5657600080fd5b50565b611e6281611cca565b8114611e6d57600080fd5b50565b611e7981611d16565b8114611e8457600080fd5b5056fea2646970667358221220bec4872374da84a09b88e152713843aa1c95fe097f3490dba422dbf458f2750664736f6c63430008000033",
    "immutableReferences": {},
    "source": "// SPDX-License-Identifier: MIT\npragma solidity ^0.8.0;\n\nimport \"../node_modules/openzeppelin-solidity/contracts/token/ERC20/ERC20.sol\";\nimport \"../node_modules/openzeppelin-solidity/contracts/access/AccessControl.sol\";\n\n//openzeppelin-solidity/contract/token/ERC20  ERC20.sol \ncontract SampleToken is ERC20, AccessControl{\n\n    constructor() ERC20(\"Digital Warrior\", \"DWT\"){\n        _mint(msg.sender, 10000 * (10 ** uint256(decimals())));\n\n    }\n}\n",
    "sourcePath": "/Users/hana/SpringBoot_Project_CultureCenter/Dapp_ToyProject_CultureCenter/smartContract/contracts/SampleToken.sol",
    "compiler": {
        "name": "solc",
        "version": "0.8.0+commit.c7dfd78e.Emscripten.clang"
    },
    "schemaVersion": "3.4.8",
    "updatedAt": "2022-08-17T23:39:14.221Z",
    "networkType": "ethereum",
    "devdoc": {
        "kind": "dev",
        "methods": {
            "allowance(address,address)": {
                "details": "See {IERC20-allowance}."
            },
            "approve(address,uint256)": {
                "details": "See {IERC20-approve}. NOTE: If `amount` is the maximum `uint256`, the allowance is not updated on `transferFrom`. This is semantically equivalent to an infinite approval. Requirements: - `spender` cannot be the zero address."
            },
            "balanceOf(address)": {
                "details": "See {IERC20-balanceOf}."
            },
            "decimals()": {
                "details": "Returns the number of decimals used to get its user representation. For example, if `decimals` equals `2`, a balance of `505` tokens should be displayed to a user as `5.05` (`505 / 10 ** 2`). Tokens usually opt for a value of 18, imitating the relationship between Ether and Wei. This is the value {ERC20} uses, unless this function is overridden; NOTE: This information is only used for _display_ purposes: it in no way affects any of the arithmetic of the contract, including {IERC20-balanceOf} and {IERC20-transfer}."
            },
            "decreaseAllowance(address,uint256)": {
                "details": "Atomically decreases the allowance granted to `spender` by the caller. This is an alternative to {approve} that can be used as a mitigation for problems described in {IERC20-approve}. Emits an {Approval} event indicating the updated allowance. Requirements: - `spender` cannot be the zero address. - `spender` must have allowance for the caller of at least `subtractedValue`."
            },
            "getRoleAdmin(bytes32)": {
                "details": "Returns the admin role that controls `role`. See {grantRole} and {revokeRole}. To change a role's admin, use {_setRoleAdmin}."
            },
            "grantRole(bytes32,address)": {
                "details": "Grants `role` to `account`. If `account` had not been already granted `role`, emits a {RoleGranted} event. Requirements: - the caller must have ``role``'s admin role."
            },
            "hasRole(bytes32,address)": {
                "details": "Returns `true` if `account` has been granted `role`."
            },
            "increaseAllowance(address,uint256)": {
                "details": "Atomically increases the allowance granted to `spender` by the caller. This is an alternative to {approve} that can be used as a mitigation for problems described in {IERC20-approve}. Emits an {Approval} event indicating the updated allowance. Requirements: - `spender` cannot be the zero address."
            },
            "name()": {
                "details": "Returns the name of the token."
            },
            "renounceRole(bytes32,address)": {
                "details": "Revokes `role` from the calling account. Roles are often managed via {grantRole} and {revokeRole}: this function's purpose is to provide a mechanism for accounts to lose their privileges if they are compromised (such as when a trusted device is misplaced). If the calling account had been revoked `role`, emits a {RoleRevoked} event. Requirements: - the caller must be `account`."
            },
            "revokeRole(bytes32,address)": {
                "details": "Revokes `role` from `account`. If `account` had been granted `role`, emits a {RoleRevoked} event. Requirements: - the caller must have ``role``'s admin role."
            },
            "supportsInterface(bytes4)": {
                "details": "See {IERC165-supportsInterface}."
            },
            "symbol()": {
                "details": "Returns the symbol of the token, usually a shorter version of the name."
            },
            "totalSupply()": {
                "details": "See {IERC20-totalSupply}."
            },
            "transfer(address,uint256)": {
                "details": "See {IERC20-transfer}. Requirements: - `to` cannot be the zero address. - the caller must have a balance of at least `amount`."
            },
            "transferFrom(address,address,uint256)": {
                "details": "See {IERC20-transferFrom}. Emits an {Approval} event indicating the updated allowance. This is not required by the EIP. See the note at the beginning of {ERC20}. NOTE: Does not update the allowance if the current allowance is the maximum `uint256`. Requirements: - `from` and `to` cannot be the zero address. - `from` must have a balance of at least `amount`. - the caller must have allowance for ``from``'s tokens of at least `amount`."
            }
        },
        "version": 1
    },
    "userdoc": {
        "kind": "user",
        "methods": {},
        "version": 1
    }
}