{
    "contractName": "TotalContract",
    "abi": [
        {
            "inputs": [],
            "stateMutability": "payable",
            "type": "constructor",
            "payable": true
        },
        {
            "anonymous": false,
            "inputs": [
                {
                    "indexed": false,
                    "internalType": "address",
                    "name": "_from",
                    "type": "address"
                },
                {
                    "indexed": false,
                    "internalType": "address",
                    "name": "_to",
                    "type": "address"
                },
                {
                    "indexed": false,
                    "internalType": "uint256",
                    "name": "_value",
                    "type": "uint256"
                }
            ],
            "name": "Approval",
            "type": "event"
        },
        {
            "anonymous": false,
            "inputs": [
                {
                    "indexed": false,
                    "internalType": "address",
                    "name": "_from",
                    "type": "address"
                },
                {
                    "indexed": false,
                    "internalType": "address",
                    "name": "_to",
                    "type": "address"
                },
                {
                    "indexed": false,
                    "internalType": "uint256",
                    "name": "_value",
                    "type": "uint256"
                }
            ],
            "name": "Transfer",
            "type": "event"
        },
        {
            "stateMutability": "payable",
            "type": "fallback",
            "payable": true
        },
        {
            "inputs": [
                {
                    "internalType": "address",
                    "name": "_owner",
                    "type": "address"
                },
                {
                    "internalType": "address",
                    "name": "_spender",
                    "type": "address"
                }
            ],
            "name": "allowance",
            "outputs": [
                {
                    "internalType": "uint256",
                    "name": "",
                    "type": "uint256"
                }
            ],
            "stateMutability": "view",
            "type": "function",
            "constant": true
        },
        {
            "inputs": [
                {
                    "internalType": "address",
                    "name": "_spender",
                    "type": "address"
                },
                {
                    "internalType": "uint256",
                    "name": "_value",
                    "type": "uint256"
                }
            ],
            "name": "approve",
            "outputs": [
                {
                    "internalType": "bool",
                    "name": "",
                    "type": "bool"
                }
            ],
            "stateMutability": "nonpayable",
            "type": "function"
        },
        {
            "inputs": [
                {
                    "internalType": "address",
                    "name": "_owner",
                    "type": "address"
                }
            ],
            "name": "balanceOf",
            "outputs": [
                {
                    "internalType": "uint256",
                    "name": "",
                    "type": "uint256"
                }
            ],
            "stateMutability": "view",
            "type": "function",
            "constant": true
        },
        {
            "inputs": [],
            "name": "decimals",
            "outputs": [
                {
                    "internalType": "uint8",
                    "name": "",
                    "type": "uint8"
                }
            ],
            "stateMutability": "view",
            "type": "function",
            "constant": true
        },
        {
            "inputs": [],
            "name": "fundWallet",
            "outputs": [
                {
                    "internalType": "address",
                    "name": "",
                    "type": "address"
                }
            ],
            "stateMutability": "view",
            "type": "function",
            "constant": true
        },
        {
            "inputs": [],
            "name": "name",
            "outputs": [
                {
                    "internalType": "string",
                    "name": "",
                    "type": "string"
                }
            ],
            "stateMutability": "view",
            "type": "function",
            "constant": true
        },
        {
            "inputs": [],
            "name": "symbol",
            "outputs": [
                {
                    "internalType": "string",
                    "name": "",
                    "type": "string"
                }
            ],
            "stateMutability": "view",
            "type": "function",
            "constant": true
        },
        {
            "inputs": [],
            "name": "totalEthInWei",
            "outputs": [
                {
                    "internalType": "uint256",
                    "name": "",
                    "type": "uint256"
                }
            ],
            "stateMutability": "view",
            "type": "function",
            "constant": true
        },
        {
            "inputs": [],
            "name": "totalSupply",
            "outputs": [
                {
                    "internalType": "uint256",
                    "name": "",
                    "type": "uint256"
                }
            ],
            "stateMutability": "view",
            "type": "function",
            "constant": true
        },
        {
            "inputs": [
                {
                    "internalType": "address",
                    "name": "_to",
                    "type": "address"
                },
                {
                    "internalType": "uint256",
                    "name": "_value",
                    "type": "uint256"
                }
            ],
            "name": "transfer",
            "outputs": [
                {
                    "internalType": "bool",
                    "name": "",
                    "type": "bool"
                }
            ],
            "stateMutability": "payable",
            "type": "function",
            "payable": true
        },
        {
            "inputs": [
                {
                    "internalType": "address",
                    "name": "_from",
                    "type": "address"
                },
                {
                    "internalType": "address",
                    "name": "_to",
                    "type": "address"
                },
                {
                    "internalType": "uint256",
                    "name": "_value",
                    "type": "uint256"
                }
            ],
            "name": "transferFrom",
            "outputs": [
                {
                    "internalType": "bool",
                    "name": "",
                    "type": "bool"
                }
            ],
            "stateMutability": "nonpayable",
            "type": "function"
        },
        {
            "inputs": [],
            "name": "unitOneEthCanBuy",
            "outputs": [
                {
                    "internalType": "uint256",
                    "name": "",
                    "type": "uint256"
                }
            ],
            "stateMutability": "view",
            "type": "function",
            "constant": true
        },
        {
            "inputs": [],
            "name": "version",
            "outputs": [
                {
                    "internalType": "string",
                    "name": "",
                    "type": "string"
                }
            ],
            "stateMutability": "view",
            "type": "function",
            "constant": true
        },
        {
            "inputs": [
                {
                    "internalType": "address",
                    "name": "_spender",
                    "type": "address"
                },
                {
                    "internalType": "uint256",
                    "name": "_value",
                    "type": "uint256"
                },
                {
                    "internalType": "bytes",
                    "name": "_extraData",
                    "type": "bytes"
                }
            ],
            "name": "approveAndCall",
            "outputs": [
                {
                    "internalType": "bool",
                    "name": "",
                    "type": "bool"
                }
            ],
            "stateMutability": "nonpayable",
            "type": "function"
        }
    ],
    "bytecode": "0x60806040526040518060400160405280601381526020017f4469676974616c57617272696f74546f6b656e00000000000000000000000000815250600290805190602001906200005192919062000158565b506012600360006101000a81548160ff021916908360ff1602179055506040518060400160405280600381526020017f445754000000000000000000000000000000000000000000000000000000000081525060049080519060200190620000bb92919062000158565b50606460068190555033600860006101000a81548173ffffffffffffffffffffffffffffffffffffffff021916908373ffffffffffffffffffffffffffffffffffffffff16021790555069021e19e0c9bab24000006000803373ffffffffffffffffffffffffffffffffffffffff1673ffffffffffffffffffffffffffffffffffffffff168152602001908152602001600020819055506200026d565b828054620001669062000208565b90600052602060002090601f0160209004810192826200018a5760008555620001d6565b82601f10620001a557805160ff1916838001178555620001d6565b82800160010185558215620001d6579182015b82811115620001d5578251825591602001919060010190620001b8565b5b509050620001e59190620001e9565b5090565b5b8082111562000204576000816000905550600101620001ea565b5090565b600060028204905060018216806200022157607f821691505b602082108114156200023857620002376200023e565b5b50919050565b7f4e487b7100000000000000000000000000000000000000000000000000000000600052602260045260246000fd5b61162f806200027d6000396000f3fe6080604052600436106100e15760003560e01c806370a082311161007f578063a081115c11610059578063a081115c146104ee578063a9059cbb14610519578063cae9ca5114610549578063dd62ed3e14610586576100e2565b806370a082311461045b578063933ba4131461049857806395d89b41146104c3576100e2565b806323b872dd116100bb57806323b872dd1461039d578063313ce567146103da57806354fd4d5014610405578063664a1ad614610430576100e2565b806306fdde031461030a578063095ea7b31461033557806318160ddd14610372576100e2565b5b346007546100f09190611380565b60078190555060006006543461010691906113d6565b905080600080600860009054906101000a900473ffffffffffffffffffffffffffffffffffffffff1673ffffffffffffffffffffffffffffffffffffffff1673ffffffffffffffffffffffffffffffffffffffff16815260200190815260200160002054101561017557600080fd5b80600080600860009054906101000a900473ffffffffffffffffffffffffffffffffffffffff1673ffffffffffffffffffffffffffffffffffffffff1673ffffffffffffffffffffffffffffffffffffffff16815260200190815260200160002060008282546101e59190611430565b92505081905550806000803373ffffffffffffffffffffffffffffffffffffffff1673ffffffffffffffffffffffffffffffffffffffff168152602001908152602001600020600082825461023a9190611380565b925050819055507fddf252ad1be2c89b69c2b068fc378daa952ba7f163c4a11628f55a4df523b3ef600860009054906101000a900473ffffffffffffffffffffffffffffffffffffffff163383604051610296939291906111c6565b60405180910390a1600860009054906101000a900473ffffffffffffffffffffffffffffffffffffffff1673ffffffffffffffffffffffffffffffffffffffff166108fc349081150290604051600060405180830381858888f19350505050158015610306573d6000803e3d6000fd5b5050005b34801561031657600080fd5b5061031f6105c3565b60405161032c9190611264565b60405180910390f35b34801561034157600080fd5b5061035c60048036038101906103579190610fd2565b610651565b6040516103699190611249565b60405180910390f35b34801561037e57600080fd5b50610387610719565b60405161039491906112a6565b60405180910390f35b3480156103a957600080fd5b506103c460048036038101906103bf9190610f83565b61071e565b6040516103d19190611249565b60405180910390f35b3480156103e657600080fd5b506103ef610900565b6040516103fc91906112c1565b60405180910390f35b34801561041157600080fd5b5061041a610913565b6040516104279190611264565b60405180910390f35b34801561043c57600080fd5b506104456109a1565b60405161045291906111ab565b60405180910390f35b34801561046757600080fd5b50610482600480360381019061047d9190610f1e565b6109c7565b60405161048f91906112a6565b60405180910390f35b3480156104a457600080fd5b506104ad610a0f565b6040516104ba91906112a6565b60405180910390f35b3480156104cf57600080fd5b506104d8610a15565b6040516104e59190611264565b60405180910390f35b3480156104fa57600080fd5b50610503610aa3565b60405161051091906112a6565b60405180910390f35b610533600480360381019061052e9190610fd2565b610aa9565b6040516105409190611249565b60405180910390f35b34801561055557600080fd5b50610570600480360381019061056b919061100e565b610bf8565b60405161057d9190611249565b60405180910390f35b34801561059257600080fd5b506105ad60048036038101906105a89190610f47565b610e05565b6040516105ba91906112a6565b60405180910390f35b600280546105d0906114fb565b80601f01602080910402602001604051908101604052809291908181526020018280546105fc906114fb565b80156106495780601f1061061e57610100808354040283529160200191610649565b820191906000526020600020905b81548152906001019060200180831161062c57829003601f168201915b505050505081565b600081600160003373ffffffffffffffffffffffffffffffffffffffff1673ffffffffffffffffffffffffffffffffffffffff16815260200190815260200160002060008573ffffffffffffffffffffffffffffffffffffffff1673ffffffffffffffffffffffffffffffffffffffff168152602001908152602001600020819055507f8c5be1e5ebec7d5bd14f71427d1e84f3dd0314c0f7b2291e5b200ac8c7c3b925338484604051610707939291906111c6565b60405180910390a16001905092915050565b600090565b6000816000808673ffffffffffffffffffffffffffffffffffffffff1673ffffffffffffffffffffffffffffffffffffffff168152602001908152602001600020541015801561076e5750600082115b156108f457816000803373ffffffffffffffffffffffffffffffffffffffff1673ffffffffffffffffffffffffffffffffffffffff16815260200190815260200160002060008282546107c19190611430565b92505081905550816000808573ffffffffffffffffffffffffffffffffffffffff1673ffffffffffffffffffffffffffffffffffffffff16815260200190815260200160002060008282546108169190611380565b9250508190555081600160008673ffffffffffffffffffffffffffffffffffffffff1673ffffffffffffffffffffffffffffffffffffffff16815260200190815260200160002060008573ffffffffffffffffffffffffffffffffffffffff1673ffffffffffffffffffffffffffffffffffffffff16815260200190815260200160002060008282546108a99190611430565b925050819055507fddf252ad1be2c89b69c2b068fc378daa952ba7f163c4a11628f55a4df523b3ef8484846040516108e3939291906111c6565b60405180910390a1600190506108f9565b600090505b9392505050565b600360009054906101000a900460ff1681565b60058054610920906114fb565b80601f016020809104026020016040519081016040528092919081815260200182805461094c906114fb565b80156109995780601f1061096e57610100808354040283529160200191610999565b820191906000526020600020905b81548152906001019060200180831161097c57829003601f168201915b505050505081565b600860009054906101000a900473ffffffffffffffffffffffffffffffffffffffff1681565b60008060008373ffffffffffffffffffffffffffffffffffffffff1673ffffffffffffffffffffffffffffffffffffffff168152602001908152602001600020549050919050565b60075481565b60048054610a22906114fb565b80601f0160208091040260200160405190810160405280929190818152602001828054610a4e906114fb565b8015610a9b5780601f10610a7057610100808354040283529160200191610a9b565b820191906000526020600020905b815481529060010190602001808311610a7e57829003601f168201915b505050505081565b60065481565b6000816000803373ffffffffffffffffffffffffffffffffffffffff1673ffffffffffffffffffffffffffffffffffffffff1681526020019081526020016000205410158015610af95750600082115b15610be857816000803373ffffffffffffffffffffffffffffffffffffffff1673ffffffffffffffffffffffffffffffffffffffff1681526020019081526020016000206000828254610b4c9190611430565b92505081905550816000808573ffffffffffffffffffffffffffffffffffffffff1673ffffffffffffffffffffffffffffffffffffffff1681526020019081526020016000206000828254610ba19190611380565b925050819055507fddf252ad1be2c89b69c2b068fc378daa952ba7f163c4a11628f55a4df523b3ef338484604051610bdb939291906111c6565b60405180910390a1610bf1565b60009050610bf2565b5b92915050565b600082600160003373ffffffffffffffffffffffffffffffffffffffff1673ffffffffffffffffffffffffffffffffffffffff16815260200190815260200160002060008673ffffffffffffffffffffffffffffffffffffffff1673ffffffffffffffffffffffffffffffffffffffff168152602001908152602001600020819055507f8c5be1e5ebec7d5bd14f71427d1e84f3dd0314c0f7b2291e5b200ac8c7c3b925338585604051610cae939291906111c6565b60405180910390a16000808573ffffffffffffffffffffffffffffffffffffffff1633863087604051602401610ce794939291906111fd565b6040516020818303038152906040527f8f4ffcb1000000000000000000000000000000000000000000000000000000007bffffffffffffffffffffffffffffffffffffffffffffffffffffffff19166020820180517bffffffffffffffffffffffffffffffffffffffffffffffffffffffff8381831617835250505050604051610d719190611194565b6000604051808303816000865af19150503d8060008114610dae576040519150601f19603f3d011682016040523d82523d6000602084013e610db3565b606091505b509150915081610df8576040517f08c379a0000000000000000000000000000000000000000000000000000000008152600401610def90611286565b60405180910390fd5b6001925050509392505050565b6000600160008473ffffffffffffffffffffffffffffffffffffffff1673ffffffffffffffffffffffffffffffffffffffff16815260200190815260200160002060008373ffffffffffffffffffffffffffffffffffffffff1673ffffffffffffffffffffffffffffffffffffffff16815260200190815260200160002054905092915050565b6000610e9f610e9a8461130d565b6112dc565b905082815260208101848484011115610eb757600080fd5b610ec28482856114b9565b509392505050565b600081359050610ed9816115cb565b92915050565b600082601f830112610ef057600080fd5b8135610f00848260208601610e8c565b91505092915050565b600081359050610f18816115e2565b92915050565b600060208284031215610f3057600080fd5b6000610f3e84828501610eca565b91505092915050565b60008060408385031215610f5a57600080fd5b6000610f6885828601610eca565b9250506020610f7985828601610eca565b9150509250929050565b600080600060608486031215610f9857600080fd5b6000610fa686828701610eca565b9350506020610fb786828701610eca565b9250506040610fc886828701610f09565b9150509250925092565b60008060408385031215610fe557600080fd5b6000610ff385828601610eca565b925050602061100485828601610f09565b9150509250929050565b60008060006060848603121561102357600080fd5b600061103186828701610eca565b935050602061104286828701610f09565b925050604084013567ffffffffffffffff81111561105f57600080fd5b61106b86828701610edf565b9150509250925092565b61107e81611464565b82525050565b61108d81611476565b82525050565b600061109e8261133d565b6110a88185611353565b93506110b88185602086016114c8565b6110c1816115ba565b840191505092915050565b60006110d78261133d565b6110e18185611364565b93506110f18185602086016114c8565b80840191505092915050565b600061110882611348565b611112818561136f565b93506111228185602086016114c8565b61112b816115ba565b840191505092915050565b6000611143600b8361136f565b91507f63616c6c206661696c65640000000000000000000000000000000000000000006000830152602082019050919050565b61117f816114a2565b82525050565b61118e816114ac565b82525050565b60006111a082846110cc565b915081905092915050565b60006020820190506111c06000830184611075565b92915050565b60006060820190506111db6000830186611075565b6111e86020830185611075565b6111f56040830184611176565b949350505050565b60006080820190506112126000830187611075565b61121f6020830186611176565b61122c6040830185611075565b818103606083015261123e8184611093565b905095945050505050565b600060208201905061125e6000830184611084565b92915050565b6000602082019050818103600083015261127e81846110fd565b905092915050565b6000602082019050818103600083015261129f81611136565b9050919050565b60006020820190506112bb6000830184611176565b92915050565b60006020820190506112d66000830184611185565b92915050565b6000604051905081810181811067ffffffffffffffff821117156113035761130261158b565b5b8060405250919050565b600067ffffffffffffffff8211156113285761132761158b565b5b601f19601f8301169050602081019050919050565b600081519050919050565b600081519050919050565b600082825260208201905092915050565b600081905092915050565b600082825260208201905092915050565b600061138b826114a2565b9150611396836114a2565b9250827fffffffffffffffffffffffffffffffffffffffffffffffffffffffffffffffff038211156113cb576113ca61152d565b5b828201905092915050565b60006113e1826114a2565b91506113ec836114a2565b9250817fffffffffffffffffffffffffffffffffffffffffffffffffffffffffffffffff04831182151516156114255761142461152d565b5b828202905092915050565b600061143b826114a2565b9150611446836114a2565b9250828210156114595761145861152d565b5b828203905092915050565b600061146f82611482565b9050919050565b60008115159050919050565b600073ffffffffffffffffffffffffffffffffffffffff82169050919050565b6000819050919050565b600060ff82169050919050565b82818337600083830152505050565b60005b838110156114e65780820151818401526020810190506114cb565b838111156114f5576000848401525b50505050565b6000600282049050600182168061151357607f821691505b602082108114156115275761152661155c565b5b50919050565b7f4e487b7100000000000000000000000000000000000000000000000000000000600052601160045260246000fd5b7f4e487b7100000000000000000000000000000000000000000000000000000000600052602260045260246000fd5b7f4e487b7100000000000000000000000000000000000000000000000000000000600052604160045260246000fd5b6000601f19601f8301169050919050565b6115d481611464565b81146115df57600080fd5b50565b6115eb816114a2565b81146115f657600080fd5b5056fea26469706673582212201fb22d58ec8855ec3fb70db82777b0b4fa68b9b7a0030190d804f65affbdf0a264736f6c63430008000033",
    "immutableReferences": {},
    "source": "// SPDX-License-Identifier: MIT\npragma solidity ^0.8.0;\n\ninterface ERC20 {\n    /*\n     *    \n     */\n    function totalSupply() external view returns (uint256);\n\n    /*\n     *    \n     */\n    function balanceOf(address _owner) external view returns (uint256);\n\n    /*\n     *   ( )\n     */\n    function transfer(address _to, uint256 _value)\n        external\n        payable\n        returns (bool);\n\n    /*\n     *   (  )\n     */\n    function transferFrom(\n        address _from,\n        address _to,\n        uint256 _value\n    ) external returns (bool);\n\n    /*\n     *         \n     */\n    function approve(address _spender, uint256 _value) external returns (bool);\n\n    /*\n     *     \n     */\n    function allowance(address _owner, address _spender)\n        external\n        view\n        returns (uint256);\n\n    /*\n     *       \n     *     \n     */\n    event Transfer(address _from, address _to, uint256 _value);\n    event Approval(address _from, address _to, uint256 _value);\n}\n\ncontract StandardToken is ERC20 {\n    mapping(address => uint256) balances;\n    mapping(address => mapping(address => uint256)) allowed;\n\n    function totalSupply() external view override returns (uint256) {}\n\n    function balanceOf(address _owner)\n        external\n        view\n        override\n        returns (uint256)\n    {\n        return balances[_owner];\n    }\n\n    function transfer(address _to, uint256 _value)\n        external\n        payable\n        override\n        returns (bool)\n    {\n        if (balances[msg.sender] >= _value && _value > 0) {\n            balances[msg.sender] -= _value;\n            balances[_to] += _value;\n            emit Transfer(msg.sender, _to, _value);\n        } else {\n            return false;\n        }\n    }\n\n    function transferFrom(\n        address _from,\n        address _to,\n        uint256 _value\n    ) external override returns (bool) {\n        if (balances[_from] >= _value && _value > 0) {\n            balances[msg.sender] -= _value;\n            balances[_to] += _value;\n            allowed[_from][_to] -= _value;\n            emit Transfer(_from, _to, _value);\n            return true;\n        } else {\n            return false;\n        }\n    }\n\n    function approve(address _spender, uint256 _value)\n        external\n        override\n        returns (bool)\n    {\n        allowed[msg.sender][_spender] = _value;\n        emit Approval(msg.sender, _spender, _value);\n        return true;\n    }\n\n    function allowance(address _owner, address _spender)\n        external\n        view\n        override\n        returns (uint256)\n    {\n        return allowed[_owner][_spender];\n    }\n}\n\ncontract TotalContract is StandardToken {\n    string public name; //token name\n    uint8 public decimals; //(18)to using wei\n    string public symbol; //unit of Token\n    string public version; //   (1.0.0)\n    uint256 public unitOneEthCanBuy; //1ETH     \n    uint256 public totalEthInWei; //   \n    address public fundWallet; //ETH   \n\n    constructor() public payable {\n        name = \"DigitalWarriotToken\";\n        decimals = 18;\n        symbol = \"DWT\";\n        unitOneEthCanBuy = 100;\n        fundWallet = msg.sender; //  \n        balances[msg.sender] = 10000000000000000000000;\n    }\n\n    fallback() external payable {\n        totalEthInWei = totalEthInWei + msg.value;\n        uint256 amount = msg.value * unitOneEthCanBuy;\n        require(balances[fundWallet] >= amount);\n\n        balances[fundWallet] -= amount;\n        balances[msg.sender] += amount;\n\n        emit Transfer(fundWallet, msg.sender, amount);\n\n        payable(fundWallet).transfer(msg.value);\n    }\n\n    function approveAndCall(\n        address _spender,\n        uint256 _value,\n        bytes memory _extraData\n    ) public returns (bool) {\n        allowed[msg.sender][_spender] = _value;\n        emit Approval(msg.sender, _spender, _value);\n\n        (bool success, bytes memory data) = _spender.call(\n            abi.encodeWithSignature(\n                \"receiveApproval(address,uint256,address,bytes)\",\n                msg.sender,\n                _value,\n                address(this),\n                _extraData\n            )\n        ); //  .\n\n        require(success, \"call failed\");\n        return true;\n    }\n}\n",
    "sourcePath": "/Users/hana/SpringBoot_Project_CultureCenter/Dapp_ToyProject_CultureCenter/smartContract/contracts/TotalContract.sol",
    "compiler": {
        "name": "solc",
        "version": "0.8.0+commit.c7dfd78e.Emscripten.clang"
    },
    "schemaVersion": "3.4.8",
    "updatedAt": "2022-08-30T08:15:02.973Z",
    "networkType": "ethereum",
    "devdoc": {
        "kind": "dev",
        "methods": {},
        "version": 1
    },
    "userdoc": {
        "kind": "user",
        "methods": {},
        "version": 1
    }
}